{
  "contractName": "Counting",
  "abi": [
    {
      "inputs": [],
      "payable": false,
      "stateMutability": "nonpayable",
      "type": "constructor"
    },
    {
      "constant": true,
      "inputs": [],
      "name": "Count",
      "outputs": [
        {
          "internalType": "uint256",
          "name": "",
          "type": "uint256"
        }
      ],
      "payable": false,
      "stateMutability": "view",
      "type": "function"
    },
    {
      "constant": true,
      "inputs": [
        {
          "internalType": "uint256",
          "name": "",
          "type": "uint256"
        }
      ],
      "name": "get_Count",
      "outputs": [
        {
          "internalType": "uint256",
          "name": "",
          "type": "uint256"
        }
      ],
      "payable": false,
      "stateMutability": "view",
      "type": "function"
    }
  ],
  "bytecode": "0x608060405234801561001057600080fd5b5060008090505060d8806100256000396000f3fe6080604052348015600f57600080fd5b506004361060325760003560e01c80636911ea9414603757806393a8333e146076575b600080fd5b606060048036036020811015604b57600080fd5b81019080803590602001909291905050506092565b6040518082815260200191505060405180910390f35b607c609d565b6040518082815260200191505060405180910390f35b600080549050919050565b6000548156fea265627a7a72315820942abe3dca9c8afe83b26c9d3248c4a9060eafc45e155668959e5f465d28c7f264736f6c63430005100032",
  "source": "//SPDX-License-Identifier:MIT\npragma solidity >= 0.5.0 <= 0.9.0;\n\ncontract Counting {\n    \n    uint public Count;\n    \n    constructor() public{\n        uint Count = 0;\n    }\n    \n    function get_Count (uint) public view returns (uint) {\n        return Count;\n    }\n}",
  "sourcePath": "/Users/venuborra/Desktop/myContracts/posted/contracts/posted.sol",
  "compiler": {
    "name": "solc",
    "version": "0.5.16+commit.9c3226ce.Emscripten.clang"
  },
  "schemaVersion": "3.4.1",
  "updatedAt": "2021-06-30T07:13:38.140Z",
  "devdoc": {
    "methods": {}
  },
  "userdoc": {
    "methods": {}
  }
}